:020000040800F2
:10000000680600207101000825030008210300088C
:100010002303000851020008350400080000000016
:100020000000000000000000000000004103000884
:1000300053020008000000002703000843030008E3
:100040008B0100088B0100088B0100088B01000860
:100050008B0100088B0100088B0100088B01000850
:100060008B0100088B0100088B0100088B01000840
:100070008B0100088B0100088B0100088B01000830
:100080008B0100088B0100088B0100088B01000820
:100090008B0100088B0100088B0100088B01000810
:1000A0008B0100088B0100088B0100088B01000800
:1000B0008B0100088B0100088B0100088B010008F0
:1000C0008B0100088B0100088B0100088B010008E0
:1000D0008B0100088B0100088B0100088B010008D0
:1000E0008B0100088B0100088B01000800F002F86A
:1000F00000F02EF80AA090E8000C82448344AAF194
:100100000107DA4501D100F023F8AFF2090EBAE891
:100110000F0013F0010F18BFFB1A43F0010318473B
:10012000A0030000B00300000023002400250026E7
:10013000103A28BF78C1FBD8520728BF30C148BF4A
:100140000B6070471FB500F037F81FBD10B510BD2C
:1001500000F044F81146FFF7F5FF00F0A9F900F0B0
:1001600062F803B4FFF7F2FF03BC00F06BF8000085
:100170000948804709480047FEE7FEE7FEE7FEE73B
:10018000FEE7FEE7FEE7FEE7FEE7FEE70448054977
:10019000054A064B7047000045030008ED000008C3
:1001A0006800002068060020680200206802002025
:1001B000704770477047000070B5064C7C44064D90
:1001C0007D4403E0206820448047241DAC42F9D1DF
:1001D00070BD00001003000010030000754600F021
:1001E0002BF8AE4605006946534620F007008546C9
:1001F00018B020B5FFF7CAFFBDE820404FF0000659
:100200004FF000074FF000084FF0000BAC46ACE891
:10021000C009ACE8C009ACE8C009ACE8C00921F0ED
:1002200007018D46704710B50446AFF300802046A5
:10023000BDE81040FFF795BF004870470000002060
:100240007047000001491820ABBEFEE726000200FF
:10025000FEE770472DE9F04791F803C00CF00F0E50
:100260001CF0100F1CBF8A784EEA020E098811F0AC
:10027000FF0F24D0036800224FF001094FF00F0850
:10028000E246002618E009FA06F50D4212D008FAF7
:1002900002F70EFA02F4BB4323435FFA8AF4482CB8
:1002A00005D0282C04BF45614FF0280A02E04FF02A
:1002B000480A056104320136082EE4D10360B1F525
:1002C000807F38BFBDE8F087436800224FF0010906
:1002D0004FF00F0800261AE006F1080509FA05F7A5
:1002E0000F4212D008FA02F40EFA02F5A3432B4390
:1002F0005FFA8CF5482D05D0282D04BF47614FF0DB
:10030000280C02E04FF0480C076104320136202A25
:10031000E2D14360BDE8F0874161704701617047F9
:10032000FEE7FEE770477047044A002911680CBFDA
:1003300021EA000008431060704700BF1810024017
:100340007047704782B03748016841F00101016091
:100350004168354A114041600168344A11400160EA
:10036000016821F480210160416821F4FE014160AF
:100370004FF41F018160002101910091016841F457
:1003800080310160016801F400310091019901316F
:100390000191009919B90199B1F5A06FF2D10168E5
:1003A00011F4003F0CBF00210121009100990129A7
:1003B00032D14FF48051425842F01002425042581C
:1003C00022F003024250425842F002024250416879
:1003D000416041684160416841F480614160416829
:1003E00021F47C114160416841F4E81141600168E9
:1003F00041F080710160016811F0007FFBD041681D
:1004000021F003014160416841F00201416041680F
:1004100001F00C010829FAD105484FF00061016094
:1004200002B07047001002400000FFF8FFFFF6FE28
:1004300008ED00E0FEE7000020481B49012200F023
:1004400009B800BF81880068FFF768BF818800682D
:10045000FFF762BF1CB504462160A28011488142AB
:1004600007D01148814206D01048814207D10420AC
:1004700002E0102000E008200121FFF755FF1020C6
:1004800001A98DF80700A088ADF8040003208DF8BD
:1004900006002068FFF7DEFE2046FFF7D7FF204664
:1004A00002B010BD00100140000C014000080140E6
:1004B00080B50248FFF7C6FFFEE700BF60000020DE
:1004C000D40400080000002068060000280100088D
:0404D00069FFFFFFC2
:04000005080000ED02
:00000001FF
